{"abi":[{"type":"constructor","inputs":[{"name":"_treasury","type":"address","internalType":"address"}],"stateMutability":"nonpayable"},{"type":"receive","stateMutability":"payable"},{"type":"function","name":"attack","inputs":[],"outputs":[],"stateMutability":"nonpayable"},{"type":"function","name":"reentrancySucceeded","inputs":[],"outputs":[{"name":"","type":"bool","internalType":"bool"}],"stateMutability":"view"},{"type":"function","name":"setTargetProposal","inputs":[{"name":"h","type":"bytes32","internalType":"bytes32"}],"outputs":[],"stateMutability":"nonpayable"},{"type":"function","name":"targetProposal","inputs":[],"outputs":[{"name":"","type":"bytes32","internalType":"bytes32"}],"stateMutability":"view"},{"type":"function","name":"treasury","inputs":[],"outputs":[{"name":"","type":"address","internalType":"address"}],"stateMutability":"view"}],"bytecode":{"object":"0x60a034606c57601f6102ae38819003918201601f19168301916001600160401b03831184841017607057808492602094604052833981010312606c57516001600160a01b0381168103606c576080526040516102299081610085823960805181818160cb015261017e0152f35b5f80fd5b634e487b7160e01b5f52604160045260245ffdfe608080604052600436101561001c575b50361561001a575f80fd5b005b5f3560e01c90816306fd72a0146100fa57816361d027b3146100b9575080636c760a23146100975780639e5faafc1461007f5763cfb4e6f11461005f575f61000f565b3461007b575f36600319011261007b5760205f54604051908152f35b5f80fd5b3461007b575f36600319011261007b5761001a610148565b3461007b575f36600319011261007b57602060ff600154166040519015158152f35b3461007b575f36600319011261007b577f00000000000000000000000000000000000000000000000000000000000000006001600160a01b03168152602090f35b3461007b57602036600319011261007b576004355f55005b90601f8019910116810190811067ffffffffffffffff82111761013457604052565b634e487b7160e01b5f52604160045260245ffd5b5f5480156101f0575f8091604051602081019163e751f27160e01b8352602482015260248152610179604482610112565b5190827f00000000000000000000000000000000000000000000000000000000000000005af13d156101eb573d67ffffffffffffffff811161013457604051906101cd601f8201601f191660200183610112565b81525f60203d92013e5b6101dd57565b600160ff1981541617600155565b6101d7565b5056fea26469706673582212207525d062ce10a23828267acdbd8cfec83ab1676c93d01b62b8a7d3fd527d6e4c64736f6c63430008210033","linkReferences":{}},"methodIdentifiers":{"attack()":"9e5faafc","reentrancySucceeded()":"6c760a23","setTargetProposal(bytes32)":"06fd72a0","targetProposal()":"cfb4e6f1","treasury()":"61d027b3"},"id":51}