{"abi":[{"type":"constructor","inputs":[{"name":"admin","type":"address","internalType":"address"},{"name":"token","type":"address","internalType":"address"}],"stateMutability":"nonpayable"},{"type":"function","name":"ADMIN_ROLE","inputs":[],"outputs":[{"name":"","type":"bytes32","internalType":"bytes32"}],"stateMutability":"view"},{"type":"function","name":"DEFAULT_ADMIN_ROLE","inputs":[],"outputs":[{"name":"","type":"bytes32","internalType":"bytes32"}],"stateMutability":"view"},{"type":"function","name":"activatePeriod","inputs":[{"name":"merkleRoot","type":"bytes32","internalType":"bytes32"},{"name":"totalAmount","type":"uint256","internalType":"uint256"}],"outputs":[],"stateMutability":"nonpayable"},{"type":"function","name":"claim","inputs":[{"name":"periodId","type":"uint256","internalType":"uint256"},{"name":"account","type":"address","internalType":"address"},{"name":"amount","type":"uint256","internalType":"uint256"},{"name":"proof","type":"bytes32[]","internalType":"bytes32[]"}],"outputs":[],"stateMutability":"nonpayable"},{"type":"function","name":"currentPeriod","inputs":[],"outputs":[{"name":"","type":"uint256","internalType":"uint256"}],"stateMutability":"view"},{"type":"function","name":"getPeriod","inputs":[{"name":"periodId","type":"uint256","internalType":"uint256"}],"outputs":[{"name":"","type":"tuple","internalType":"struct IRewardDistributor.RewardPeriod","components":[{"name":"merkleRoot","type":"bytes32","internalType":"bytes32"},{"name":"totalAmount","type":"uint256","internalType":"uint256"},{"name":"activatedAt","type":"uint256","internalType":"uint256"},{"name":"active","type":"bool","internalType":"bool"}]}],"stateMutability":"view"},{"type":"function","name":"getRoleAdmin","inputs":[{"name":"role","type":"bytes32","internalType":"bytes32"}],"outputs":[{"name":"","type":"bytes32","internalType":"bytes32"}],"stateMutability":"view"},{"type":"function","name":"grantRole","inputs":[{"name":"role","type":"bytes32","internalType":"bytes32"},{"name":"account","type":"address","internalType":"address"}],"outputs":[],"stateMutability":"nonpayable"},{"type":"function","name":"hasClaimed","inputs":[{"name":"periodId","type":"uint256","internalType":"uint256"},{"name":"account","type":"address","internalType":"address"}],"outputs":[{"name":"","type":"bool","internalType":"bool"}],"stateMutability":"view"},{"type":"function","name":"hasRole","inputs":[{"name":"role","type":"bytes32","internalType":"bytes32"},{"name":"account","type":"address","internalType":"address"}],"outputs":[{"name":"","type":"bool","internalType":"bool"}],"stateMutability":"view"},{"type":"function","name":"renounceRole","inputs":[{"name":"role","type":"bytes32","internalType":"bytes32"},{"name":"callerConfirmation","type":"address","internalType":"address"}],"outputs":[],"stateMutability":"nonpayable"},{"type":"function","name":"revokeRole","inputs":[{"name":"role","type":"bytes32","internalType":"bytes32"},{"name":"account","type":"address","internalType":"address"}],"outputs":[],"stateMutability":"nonpayable"},{"type":"function","name":"rewardToken","inputs":[],"outputs":[{"name":"","type":"address","internalType":"contract IERC20"}],"stateMutability":"view"},{"type":"function","name":"supportsInterface","inputs":[{"name":"interfaceId","type":"bytes4","internalType":"bytes4"}],"outputs":[{"name":"","type":"bool","internalType":"bool"}],"stateMutability":"view"},{"type":"function","name":"updateRoot","inputs":[{"name":"periodId","type":"uint256","internalType":"uint256"},{"name":"newRoot","type":"bytes32","internalType":"bytes32"}],"outputs":[],"stateMutability":"nonpayable"},{"type":"event","name":"PeriodActivated","inputs":[{"name":"periodId","type":"uint256","indexed":true,"internalType":"uint256"},{"name":"merkleRoot","type":"bytes32","indexed":false,"internalType":"bytes32"},{"name":"totalAmount","type":"uint256","indexed":false,"internalType":"uint256"}],"anonymous":false},{"type":"event","name":"RewardClaimed","inputs":[{"name":"periodId","type":"uint256","indexed":true,"internalType":"uint256"},{"name":"account","type":"address","indexed":true,"internalType":"address"},{"name":"amount","type":"uint256","indexed":false,"internalType":"uint256"}],"anonymous":false},{"type":"event","name":"RoleAdminChanged","inputs":[{"name":"role","type":"bytes32","indexed":true,"internalType":"bytes32"},{"name":"previousAdminRole","type":"bytes32","indexed":true,"internalType":"bytes32"},{"name":"newAdminRole","type":"bytes32","indexed":true,"internalType":"bytes32"}],"anonymous":false},{"type":"event","name":"RoleGranted","inputs":[{"name":"role","type":"bytes32","indexed":true,"internalType":"bytes32"},{"name":"account","type":"address","indexed":true,"internalType":"address"},{"name":"sender","type":"address","indexed":true,"internalType":"address"}],"anonymous":false},{"type":"event","name":"RoleRevoked","inputs":[{"name":"role","type":"bytes32","indexed":true,"internalType":"bytes32"},{"name":"account","type":"address","indexed":true,"internalType":"address"},{"name":"sender","type":"address","indexed":true,"internalType":"address"}],"anonymous":false},{"type":"event","name":"RootUpdated","inputs":[{"name":"periodId","type":"uint256","indexed":true,"internalType":"uint256"},{"name":"oldRoot","type":"bytes32","indexed":false,"internalType":"bytes32"},{"name":"newRoot","type":"bytes32","indexed":false,"internalType":"bytes32"}],"anonymous":false},{"type":"error","name":"AccessControlBadConfirmation","inputs":[]},{"type":"error","name":"AccessControlUnauthorizedAccount","inputs":[{"name":"account","type":"address","internalType":"address"},{"name":"neededRole","type":"bytes32","internalType":"bytes32"}]},{"type":"error","name":"ReentrancyGuardReentrantCall","inputs":[]},{"type":"error","name":"SafeERC20FailedOperation","inputs":[{"name":"token","type":"address","internalType":"address"}]}],"bytecode":{"object":"0x60a03461015b57601f610fc238819003918201601f19168301916001600160401b0383118484101761015f57808492604094855283398101031261015b57610052602061004b83610173565b9201610173565b60017f9b779b17422d0df92223018b32b4d1fa46e071723d6817e2486d003becc55f00556001600160a01b03821615610116576001600160a01b03169081156100d157806100a26100a892610187565b506101fd565b50608052604051610cd19081610291823960805181818160d60152818161027b01526107540152f35b60405162461bcd60e51b815260206004820152601660248201527f526577617264446973743a207a65726f20746f6b656e000000000000000000006044820152606490fd5b60405162461bcd60e51b815260206004820152601660248201527f526577617264446973743a207a65726f2061646d696e000000000000000000006044820152606490fd5b5f80fd5b634e487b7160e01b5f52604160045260245ffd5b51906001600160a01b038216820361015b57565b6001600160a01b0381165f9081525f516020610fa25f395f51905f52602052604090205460ff166101f8576001600160a01b03165f8181525f516020610fa25f395f51905f5260205260408120805460ff191660011790553391905f516020610f625f395f51905f528180a4600190565b505f90565b6001600160a01b0381165f9081525f516020610f825f395f51905f52602052604090205460ff166101f8576001600160a01b03165f8181525f516020610f825f395f51905f5260205260408120805460ff191660011790553391907fa49807205ce4d355092ef5a8a18f56e8913cf4a201fbe287825b095693c21775905f516020610f625f395f51905f529080a460019056fe6080806040526004361015610012575f80fd5b5f3560e01c90816301ffc9a714610955575080630604061814610938578063248a9ca3146109065780632e7ba6ef1461055a5780632f2ff15d1461051d57806336568abe146104d95780634b2c07061461044157806375b238fc14610407578063873f6f9e146103be57806391d1485414610376578063a217fddf1461035c578063d0dc7c52146101db578063d547741f14610197578063ed8b74b7146101095763f7c618c1146100c1575f80fd5b34610105575f366003190112610105576040517f00000000000000000000000000000000000000000000000000000000000000006001600160a01b03168152602090f35b5f80fd5b34610105576040366003190112610105576004357f66042f3a2aa2447638b4b91008bb67ce4bcb31954f19979f71c7238ad2175c7d604060243561014b610aec565b835f52600260205261016560ff6003845f20015416610a0a565b610170811515610aa8565b835f526002602052815f205490845f52600260205280835f205582519182526020820152a2005b34610105576040366003190112610105576101d96004356101b66109a8565b906101d46101cf825f525f602052600160405f20015490565b610b5b565b610c1b565b005b34610105576040366003190112610105576024356004356101fa610aec565b610205811515610aa8565b6102108215156109be565b6001545f19811461034857600101918260015560405161022f81610a56565b8281526003602082019183835260408101428152606082019360018552875f52600260205260405f2092518355516001830155516002820155019051151560ff801983541691161790557f000000000000000000000000000000000000000000000000000000000000000091604051926323b872dd60e01b5f5233600452306024528260445260205f60648180855af160015f5114811615610329575b846040525f606052156103095750825260208201527ffd63b83a1746cc85e92cf3db0fcb90997a855eb7b57a0da4ef0e83b8247d1d5790604090a2005b635274afe760e01b5f9081526001600160a01b0391909116600452602490fd5b600181151661033f57813b15153d1516166102cc565b843d5f823e3d90fd5b634e487b7160e01b5f52601160045260245ffd5b34610105575f3660031901126101055760206040515f8152f35b346101055760403660031901126101055761038f6109a8565b6004355f525f60205260405f209060018060a01b03165f52602052602060ff60405f2054166040519015158152f35b34610105576040366003190112610105576103d76109a8565b6004355f52600360205260405f209060018060a01b03165f52602052602060ff60405f2054166040519015158152f35b34610105575f3660031901126101055760206040517fa49807205ce4d355092ef5a8a18f56e8913cf4a201fbe287825b095693c217758152f35b34610105576020366003190112610105575f606060405161046181610a56565b82815282602082015282604082015201526004355f526002602052608060405f2060405161048e81610a56565b815491828252600181015460208301908152606060ff600360028501549460408701958652015416930192151583526040519384525160208401525160408301525115156060820152f35b34610105576040366003190112610105576104f26109a8565b336001600160a01b0382160361050e576101d990600435610c1b565b63334bd91960e11b5f5260045ffd5b34610105576040366003190112610105576101d960043561053c6109a8565b906105556101cf825f525f602052600160405f20015490565b610b93565b34610105576080366003190112610105576004356105766109a8565b906044356064359267ffffffffffffffff841161010557366023850112156101055783600401359267ffffffffffffffff8411610105578360051b946024868201013681116101055760027f9b779b17422d0df92223018b32b4d1fa46e071723d6817e2486d003becc55f0054146108f75760027f9b779b17422d0df92223018b32b4d1fa46e071723d6817e2486d003becc55f00556001600160a01b0384169384156108b2576106288615156109be565b835f52600260205261064360ff600360405f20015416610a0a565b835f52600360205260405f20855f5260205260ff60405f20541661086d5760405160208101916bffffffffffffffffffffffff199060601b16825286603482015260348152610693605482610a86565b51902060405160208101918252602081526106af604082610a86565b51902091835f52600260205260405f2054966106d160206040519a018a610a86565b8852602401602088015b82821061085d57505050925f935b865185101561072b5760208560051b88010151908181105f1461071a575f52602052600160405f205b9401936106e9565b905f52602052600160405f20610712565b850361081857815f52600360205260405f20835f5260205260405f20600160ff198254161790557f0000000000000000000000000000000000000000000000000000000000000000906040519163a9059cbb60e01b5f52846004528160245260205f60448180855af160015f51148116156107f9575b83604052156103095750816020917f24b5efa61dd1cfc659205a97fb8ed868f3cb8c81922bab2b96423e5de1de2cb79352a360017f9b779b17422d0df92223018b32b4d1fa46e071723d6817e2486d003becc55f0055005b600181151661080f57813b15153d1516166107a1565b833d5f823e3d90fd5b60405162461bcd60e51b815260206004820152601960248201527f526577617264446973743a20696e76616c69642070726f6f66000000000000006044820152606490fd5b81358152602091820191016106db565b60405162461bcd60e51b815260206004820152601b60248201527f526577617264446973743a20616c726561647920636c61696d656400000000006044820152606490fd5b60405162461bcd60e51b815260206004820152601860248201527f526577617264446973743a207a65726f206163636f756e7400000000000000006044820152606490fd5b633ee5aeb560e01b5f5260045ffd5b346101055760203660031901126101055760206109306004355f525f602052600160405f20015490565b604051908152f35b34610105575f366003190112610105576020600154604051908152f35b34610105576020366003190112610105576004359063ffffffff60e01b821680920361010557602091637965db0b60e01b8114908115610997575b5015158152f35b6301ffc9a760e01b14905083610990565b602435906001600160a01b038216820361010557565b156109c557565b60405162461bcd60e51b815260206004820152601760248201527f526577617264446973743a207a65726f20616d6f756e740000000000000000006044820152606490fd5b15610a1157565b60405162461bcd60e51b815260206004820152601d60248201527f526577617264446973743a20706572696f64206e6f74206163746976650000006044820152606490fd5b6080810190811067ffffffffffffffff821117610a7257604052565b634e487b7160e01b5f52604160045260245ffd5b90601f8019910116810190811067ffffffffffffffff821117610a7257604052565b15610aaf57565b60405162461bcd60e51b815260206004820152601560248201527414995dd85c99111a5cdd0e881e995c9bc81c9bdbdd605a1b6044820152606490fd5b335f9081527f7d7ffb7a348e1c6a02869081a26547b49160dd3df72d1d75a570eb9b698292ec602052604090205460ff1615610b2457565b63e2517d3f60e01b5f52336004527fa49807205ce4d355092ef5a8a18f56e8913cf4a201fbe287825b095693c2177560245260445ffd5b5f8181526020818152604080832033845290915290205460ff1615610b7d5750565b63e2517d3f60e01b5f523360045260245260445ffd5b5f818152602081815260408083206001600160a01b038616845290915290205460ff16610c15575f818152602081815260408083206001600160a01b0395909516808452949091528120805460ff19166001179055339291907f2f8788117e7eff1d82e926ec794901d17c78024a50270940304540a733656f0d9080a4600190565b50505f90565b5f818152602081815260408083206001600160a01b038616845290915290205460ff1615610c15575f818152602081815260408083206001600160a01b0395909516808452949091528120805460ff19169055339291907ff6391f5c32d9c69d2a47ea670b442974b53935d1edc7fd64eb21e047a839171b9080a460019056fea2646970667358221220ed4218b36291f52040acd089310a826eac9d2e5e68e7b9473a91253b322bcff364736f6c634300082100332f8788117e7eff1d82e926ec794901d17c78024a50270940304540a733656f0d7d7ffb7a348e1c6a02869081a26547b49160dd3df72d1d75a570eb9b698292ecad3228b676f7d3cd4284a5443f17f1962b36e491b30a40b2405849e597ba5fb5","linkReferences":{}},"methodIdentifiers":{"ADMIN_ROLE()":"75b238fc","DEFAULT_ADMIN_ROLE()":"a217fddf","activatePeriod(bytes32,uint256)":"d0dc7c52","claim(uint256,address,uint256,bytes32[])":"2e7ba6ef","currentPeriod()":"06040618","getPeriod(uint256)":"4b2c0706","getRoleAdmin(bytes32)":"248a9ca3","grantRole(bytes32,address)":"2f2ff15d","hasClaimed(uint256,address)":"873f6f9e","hasRole(bytes32,address)":"91d14854","renounceRole(bytes32,address)":"36568abe","revokeRole(bytes32,address)":"d547741f","rewardToken()":"f7c618c1","supportsInterface(bytes4)":"01ffc9a7","updateRoot(uint256,bytes32)":"ed8b74b7"},"id":46}