{"abi":[{"type":"constructor","inputs":[{"name":"admin","type":"address","internalType":"address"},{"name":"guardian","type":"address","internalType":"address"},{"name":"initialDelay","type":"uint256","internalType":"uint256"}],"stateMutability":"nonpayable"},{"type":"function","name":"DEFAULT_ADMIN_ROLE","inputs":[],"outputs":[{"name":"","type":"bytes32","internalType":"bytes32"}],"stateMutability":"view"},{"type":"function","name":"GUARDIAN_ROLE","inputs":[],"outputs":[{"name":"","type":"bytes32","internalType":"bytes32"}],"stateMutability":"view"},{"type":"function","name":"MAX_DELAY","inputs":[],"outputs":[{"name":"","type":"uint256","internalType":"uint256"}],"stateMutability":"view"},{"type":"function","name":"MIN_DELAY","inputs":[],"outputs":[{"name":"","type":"uint256","internalType":"uint256"}],"stateMutability":"view"},{"type":"function","name":"TREASURY_ROLE","inputs":[],"outputs":[{"name":"","type":"bytes32","internalType":"bytes32"}],"stateMutability":"view"},{"type":"function","name":"cancel","inputs":[{"name":"execHash","type":"bytes32","internalType":"bytes32"}],"outputs":[],"stateMutability":"nonpayable"},{"type":"function","name":"getDelay","inputs":[],"outputs":[{"name":"","type":"uint256","internalType":"uint256"}],"stateMutability":"view"},{"type":"function","name":"getExecution","inputs":[{"name":"execHash","type":"bytes32","internalType":"bytes32"}],"outputs":[{"name":"","type":"tuple","internalType":"struct ITimelockEngine.QueuedExecution","components":[{"name":"execHash","type":"bytes32","internalType":"bytes32"},{"name":"executableAfter","type":"uint256","internalType":"uint256"},{"name":"executed","type":"bool","internalType":"bool"},{"name":"cancelled","type":"bool","internalType":"bool"}]}],"stateMutability":"view"},{"type":"function","name":"getRoleAdmin","inputs":[{"name":"role","type":"bytes32","internalType":"bytes32"}],"outputs":[{"name":"","type":"bytes32","internalType":"bytes32"}],"stateMutability":"view"},{"type":"function","name":"grantRole","inputs":[{"name":"role","type":"bytes32","internalType":"bytes32"},{"name":"account","type":"address","internalType":"address"}],"outputs":[],"stateMutability":"nonpayable"},{"type":"function","name":"hasRole","inputs":[{"name":"role","type":"bytes32","internalType":"bytes32"},{"name":"account","type":"address","internalType":"address"}],"outputs":[{"name":"","type":"bool","internalType":"bool"}],"stateMutability":"view"},{"type":"function","name":"isExecutable","inputs":[{"name":"execHash","type":"bytes32","internalType":"bytes32"}],"outputs":[{"name":"","type":"bool","internalType":"bool"}],"stateMutability":"view"},{"type":"function","name":"isQueued","inputs":[{"name":"execHash","type":"bytes32","internalType":"bytes32"}],"outputs":[{"name":"","type":"bool","internalType":"bool"}],"stateMutability":"view"},{"type":"function","name":"markExecuted","inputs":[{"name":"execHash","type":"bytes32","internalType":"bytes32"}],"outputs":[],"stateMutability":"nonpayable"},{"type":"function","name":"queue","inputs":[{"name":"proposalHash","type":"bytes32","internalType":"bytes32"}],"outputs":[{"name":"execHash","type":"bytes32","internalType":"bytes32"}],"stateMutability":"nonpayable"},{"type":"function","name":"renounceRole","inputs":[{"name":"role","type":"bytes32","internalType":"bytes32"},{"name":"callerConfirmation","type":"address","internalType":"address"}],"outputs":[],"stateMutability":"nonpayable"},{"type":"function","name":"revokeRole","inputs":[{"name":"role","type":"bytes32","internalType":"bytes32"},{"name":"account","type":"address","internalType":"address"}],"outputs":[],"stateMutability":"nonpayable"},{"type":"function","name":"supportsInterface","inputs":[{"name":"interfaceId","type":"bytes4","internalType":"bytes4"}],"outputs":[{"name":"","type":"bool","internalType":"bool"}],"stateMutability":"view"},{"type":"function","name":"updateDelay","inputs":[{"name":"newDelay","type":"uint256","internalType":"uint256"}],"outputs":[],"stateMutability":"nonpayable"},{"type":"event","name":"DelayUpdated","inputs":[{"name":"oldDelay","type":"uint256","indexed":false,"internalType":"uint256"},{"name":"newDelay","type":"uint256","indexed":false,"internalType":"uint256"}],"anonymous":false},{"type":"event","name":"ExecutionCancelled","inputs":[{"name":"execHash","type":"bytes32","indexed":true,"internalType":"bytes32"}],"anonymous":false},{"type":"event","name":"ExecutionCompleted","inputs":[{"name":"execHash","type":"bytes32","indexed":true,"internalType":"bytes32"}],"anonymous":false},{"type":"event","name":"ExecutionQueued","inputs":[{"name":"execHash","type":"bytes32","indexed":true,"internalType":"bytes32"},{"name":"executableAfter","type":"uint256","indexed":false,"internalType":"uint256"}],"anonymous":false},{"type":"event","name":"RoleAdminChanged","inputs":[{"name":"role","type":"bytes32","indexed":true,"internalType":"bytes32"},{"name":"previousAdminRole","type":"bytes32","indexed":true,"internalType":"bytes32"},{"name":"newAdminRole","type":"bytes32","indexed":true,"internalType":"bytes32"}],"anonymous":false},{"type":"event","name":"RoleGranted","inputs":[{"name":"role","type":"bytes32","indexed":true,"internalType":"bytes32"},{"name":"account","type":"address","indexed":true,"internalType":"address"},{"name":"sender","type":"address","indexed":true,"internalType":"address"}],"anonymous":false},{"type":"event","name":"RoleRevoked","inputs":[{"name":"role","type":"bytes32","indexed":true,"internalType":"bytes32"},{"name":"account","type":"address","indexed":true,"internalType":"address"},{"name":"sender","type":"address","indexed":true,"internalType":"address"}],"anonymous":false},{"type":"error","name":"AccessControlBadConfirmation","inputs":[]},{"type":"error","name":"AccessControlUnauthorizedAccount","inputs":[{"name":"account","type":"address","internalType":"address"},{"name":"neededRole","type":"bytes32","internalType":"bytes32"}]},{"type":"error","name":"ReentrancyGuardReentrantCall","inputs":[]}],"bytecode":{"object":"0x6080346101ae57601f610fbf38819003918201601f19168301916001600160401b038311848410176101b2578084926060946040528339810103126101ae57610047816101c6565b6040610055602084016101c6565b92015160017f9b779b17422d0df92223018b32b4d1fa46e071723d6817e2486d003becc55f0055916001600160a01b03821615610169576001600160a01b03811615610124576201518083101580610117575b156100d2576100b96100bf926101da565b50610250565b50600155604051610c7b90816102e48239f35b60405162461bcd60e51b815260206004820152601d60248201527f54696d656c6f636b3a2064656c6179206f7574206f6620626f756e64730000006044820152606490fd5b5062278d008311156100a8565b60405162461bcd60e51b815260206004820152601760248201527f54696d656c6f636b3a207a65726f20677561726469616e0000000000000000006044820152606490fd5b60405162461bcd60e51b815260206004820152601460248201527f54696d656c6f636b3a207a65726f2061646d696e0000000000000000000000006044820152606490fd5b5f80fd5b634e487b7160e01b5f52604160045260245ffd5b51906001600160a01b03821682036101ae57565b6001600160a01b0381165f9081525f516020610f9f5f395f51905f52602052604090205460ff1661024b576001600160a01b03165f8181525f516020610f9f5f395f51905f5260205260408120805460ff191660011790553391905f516020610f5f5f395f51905f528180a4600190565b505f90565b6001600160a01b0381165f9081525f516020610f7f5f395f51905f52602052604090205460ff1661024b576001600160a01b03165f8181525f516020610f7f5f395f51905f5260205260408120805460ff191660011790553391907f55435dd261a4b9b3364963f7738a7a662ad9c84396d64be3365284bb7f0a5041905f516020610f5f5f395f51905f529080a460019056fe6080806040526004361015610012575f80fd5b5f3560e01c90816301ffc9a71461095a575080630dc051f8146108f85780630fe11ab314610862578063248a9ca31461083057806324ea54f4146107f65780632f2ff15d146107c757806336568abe146107915780634125ff901461077457806364d6235314610677578063665d4c611461056a5780637c10dea6146103e257806391d14854146103a75780639cf782cb146103315780639f81aed714610314578063a217fddf146102fa578063c4d252f51461017e578063cebc9a8214610161578063d11a57ec146101275763d547741f146100ed575f80fd5b34610123576101216100fe366109ad565b9061011c610117825f525f602052600160405f20015490565b610b05565b610bc5565b005b5f80fd5b34610123575f3660031901126101235760206040517fe1dcbdb91df27212a29bc27177c840cf2f819ecf2187432e1fac86c2dd5dfca98152f35b34610123575f366003190112610123576020600154604051908152f35b3461012357602036600319011261012357335f9081527f9e5c930214a7bc8a78d251e617445bcdba028aed2ede5828cc6cd6c8261656f560205260409020546004359060ff1680156102c3575b1561027e57805f526002602052600260405f206101ed60018201541515610a07565b0180546101fd60ff821615610a4a565b60ff8160081c166102395761ff0019166101001790557fa9492956e3406e5fabb393f5ac68540da3bb42721d741519c0eadd27a15d83c05f80a2005b60405162461bcd60e51b815260206004820152601b60248201527f54696d656c6f636b3a20616c72656164792063616e63656c6c656400000000006044820152606490fd5b60405162461bcd60e51b815260206004820152601860248201527f54696d656c6f636b3a206e6f7420617574686f72697a656400000000000000006044820152606490fd5b50335f9081527f8a40f0b47fdc2a0ce293b772acfc7508c8315a4d462786c1adc3a56f92ca2d05602052604090205460ff166101cb565b34610123575f3660031901126101235760206040515f8152f35b34610123575f366003190112610123576020604051620151808152f35b34610123576020366003190112610123576004355f526002602052602060405f2060018101548015159182610397575b82610384575b5081610379575b506040519015158152f35b90504210158261036e565b6002015460081c60ff1615915083610367565b600281015460ff16159250610361565b34610123576103b5366109ad565b905f525f60205260405f209060018060a01b03165f52602052602060ff60405f2054166040519015158152f35b34610123576020366003190112610123576004356103fe610a96565b801561052f57805f52600260205260405f2060018101541590811561051d575b50156104d8576001544201908142116104c457807f558d9c0ad8e52c8b10c1eb7e93323e88062ea893dd0b6ded55a4967a14a7ab876020809461045f6109d3565b848152828101828152600260408301925f845260608101925f8452885f5282875260405f2091518255516001820155019151151560ff8019845416911617825551151561ff0082549160081b169061ff001916179055604051908152a2604051908152f35b634e487b7160e01b5f52601160045260245ffd5b60405162461bcd60e51b815260206004820152601860248201527f54696d656c6f636b3a20616c72656164792071756575656400000000000000006044820152606490fd5b60ff91506002015460081c168261041e565b60405162461bcd60e51b81526020600482015260136024820152720a8d2dacad8dec6d67440f4cae4de40d0c2e6d606b1b6044820152606490fd5b3461012357602036600319011261012357600435610586610a96565b805f52600260205260405f2060026001820154916105a5831515610a07565b01908154906105b760ff831615610a4a565b60ff8260081c1661063c5742106105f75760ff191660011790557f421d95d549ff8a0c568e96a2b4a075d2cfcd184321df208ae8c4d69197946c205f80a2005b60405162461bcd60e51b815260206004820152601c60248201527f54696d656c6f636b3a206e6f74207965742065786563757461626c65000000006044820152606490fd5b60405162461bcd60e51b8152602060048201526013602482015272151a5b595b1bd8dace8818d85b98d95b1b1959606a1b6044820152606490fd5b3461012357602036600319011261012357335f9081527fad3228b676f7d3cd4284a5443f17f1962b36e491b30a40b2405849e597ba5fb560205260409020546004359060ff161561075d576201518081101580610750575b1561070b577fa580b4a9812995ffed1b336481c3f3bfeb3414df9f587a9d73856bab25aa4eee60406001548151908152836020820152a1600155005b60405162461bcd60e51b815260206004820152601d60248201527f54696d656c6f636b3a2064656c6179206f7574206f6620626f756e64730000006044820152606490fd5b5062278d008111156106cf565b63e2517d3f60e01b5f52336004525f60245260445ffd5b34610123575f36600319011261012357602060405162278d008152f35b346101235761079f366109ad565b336001600160a01b038216036107b85761012191610bc5565b63334bd91960e11b5f5260045ffd5b34610123576101216107d8366109ad565b906107f1610117825f525f602052600160405f20015490565b610b3d565b34610123575f3660031901126101235760206040517f55435dd261a4b9b3364963f7738a7a662ad9c84396d64be3365284bb7f0a50418152f35b3461012357602036600319011261012357602061085a6004355f525f602052600160405f20015490565b604051908152f35b34610123576020366003190112610123575f606061087e6109d3565b82815282602082015282604082015201526004355f526002602052608060405f206108a76109d3565b9080549182815260026001830154926020830193845201549160ff6060604084019382861615158552019360081c161515835260405193845251602084015251151560408301525115156060820152f35b34610123576020366003190112610123576004355f526002602052602060405f2060018101541515908161094a575b8161093757506040519015158152f35b60ff91506002015460081c16158261036e565b600281015460ff16159150610927565b34610123576020366003190112610123576004359063ffffffff60e01b821680920361012357602091637965db0b60e01b811490811561099c575b5015158152f35b6301ffc9a760e01b14905083610995565b604090600319011261012357600435906024356001600160a01b03811681036101235790565b604051906080820182811067ffffffffffffffff8211176109f357604052565b634e487b7160e01b5f52604160045260245ffd5b15610a0e57565b60405162461bcd60e51b8152602060048201526014602482015273151a5b595b1bd8dace881b9bdd081c5d595d595960621b6044820152606490fd5b15610a5157565b60405162461bcd60e51b815260206004820152601a60248201527f54696d656c6f636b3a20616c72656164792065786563757465640000000000006044820152606490fd5b335f9081527f9e5c930214a7bc8a78d251e617445bcdba028aed2ede5828cc6cd6c8261656f5602052604090205460ff1615610ace57565b63e2517d3f60e01b5f52336004527fe1dcbdb91df27212a29bc27177c840cf2f819ecf2187432e1fac86c2dd5dfca960245260445ffd5b5f8181526020818152604080832033845290915290205460ff1615610b275750565b63e2517d3f60e01b5f523360045260245260445ffd5b5f818152602081815260408083206001600160a01b038616845290915290205460ff16610bbf575f818152602081815260408083206001600160a01b0395909516808452949091528120805460ff19166001179055339291907f2f8788117e7eff1d82e926ec794901d17c78024a50270940304540a733656f0d9080a4600190565b50505f90565b5f818152602081815260408083206001600160a01b038616845290915290205460ff1615610bbf575f818152602081815260408083206001600160a01b0395909516808452949091528120805460ff19169055339291907ff6391f5c32d9c69d2a47ea670b442974b53935d1edc7fd64eb21e047a839171b9080a460019056fea264697066735822122036e653dacfbde0d1e3ce3fa7cf5d911e0251dac600cb8dd54eb667077da82afc64736f6c634300082100332f8788117e7eff1d82e926ec794901d17c78024a50270940304540a733656f0d8a40f0b47fdc2a0ce293b772acfc7508c8315a4d462786c1adc3a56f92ca2d05ad3228b676f7d3cd4284a5443f17f1962b36e491b30a40b2405849e597ba5fb5","linkReferences":{}},"methodIdentifiers":{"DEFAULT_ADMIN_ROLE()":"a217fddf","GUARDIAN_ROLE()":"24ea54f4","MAX_DELAY()":"4125ff90","MIN_DELAY()":"9f81aed7","TREASURY_ROLE()":"d11a57ec","cancel(bytes32)":"c4d252f5","getDelay()":"cebc9a82","getExecution(bytes32)":"0fe11ab3","getRoleAdmin(bytes32)":"248a9ca3","grantRole(bytes32,address)":"2f2ff15d","hasRole(bytes32,address)":"91d14854","isExecutable(bytes32)":"9cf782cb","isQueued(bytes32)":"0dc051f8","markExecuted(bytes32)":"665d4c61","queue(bytes32)":"7c10dea6","renounceRole(bytes32,address)":"36568abe","revokeRole(bytes32,address)":"d547741f","supportsInterface(bytes4)":"01ffc9a7","updateDelay(uint256)":"64d62353"},"id":43}