{"abi":[{"type":"constructor","inputs":[{"name":"admin","type":"address","internalType":"address"},{"name":"signers","type":"address[]","internalType":"address[]"},{"name":"threshold","type":"uint256","internalType":"uint256"}],"stateMutability":"nonpayable"},{"type":"function","name":"ADMIN_ROLE","inputs":[],"outputs":[{"name":"","type":"bytes32","internalType":"bytes32"}],"stateMutability":"view"},{"type":"function","name":"DEFAULT_ADMIN_ROLE","inputs":[],"outputs":[{"name":"","type":"bytes32","internalType":"bytes32"}],"stateMutability":"view"},{"type":"function","name":"DOMAIN_SEPARATOR","inputs":[],"outputs":[{"name":"","type":"bytes32","internalType":"bytes32"}],"stateMutability":"view"},{"type":"function","name":"SIGNER_ROLE","inputs":[],"outputs":[{"name":"","type":"bytes32","internalType":"bytes32"}],"stateMutability":"view"},{"type":"function","name":"addSigner","inputs":[{"name":"signer","type":"address","internalType":"address"}],"outputs":[],"stateMutability":"nonpayable"},{"type":"function","name":"authorizeProposal","inputs":[{"name":"proposalHash","type":"bytes32","internalType":"bytes32"},{"name":"actionType","type":"uint8","internalType":"uint8"},{"name":"deadline","type":"uint256","internalType":"uint256"},{"name":"signatures","type":"bytes[]","internalType":"bytes[]"}],"outputs":[],"stateMutability":"nonpayable"},{"type":"function","name":"getNonce","inputs":[{"name":"signer","type":"address","internalType":"address"}],"outputs":[{"name":"","type":"uint256","internalType":"uint256"}],"stateMutability":"view"},{"type":"function","name":"getRoleAdmin","inputs":[{"name":"role","type":"bytes32","internalType":"bytes32"}],"outputs":[{"name":"","type":"bytes32","internalType":"bytes32"}],"stateMutability":"view"},{"type":"function","name":"getSignerCount","inputs":[],"outputs":[{"name":"","type":"uint256","internalType":"uint256"}],"stateMutability":"view"},{"type":"function","name":"getThreshold","inputs":[],"outputs":[{"name":"","type":"uint256","internalType":"uint256"}],"stateMutability":"view"},{"type":"function","name":"grantRole","inputs":[{"name":"role","type":"bytes32","internalType":"bytes32"},{"name":"account","type":"address","internalType":"address"}],"outputs":[],"stateMutability":"nonpayable"},{"type":"function","name":"hasRole","inputs":[{"name":"role","type":"bytes32","internalType":"bytes32"},{"name":"account","type":"address","internalType":"address"}],"outputs":[{"name":"","type":"bool","internalType":"bool"}],"stateMutability":"view"},{"type":"function","name":"isAuthorized","inputs":[{"name":"proposalHash","type":"bytes32","internalType":"bytes32"}],"outputs":[{"name":"","type":"bool","internalType":"bool"}],"stateMutability":"view"},{"type":"function","name":"isSigner","inputs":[{"name":"account","type":"address","internalType":"address"}],"outputs":[{"name":"","type":"bool","internalType":"bool"}],"stateMutability":"view"},{"type":"function","name":"removeSigner","inputs":[{"name":"signer","type":"address","internalType":"address"}],"outputs":[],"stateMutability":"nonpayable"},{"type":"function","name":"renounceRole","inputs":[{"name":"role","type":"bytes32","internalType":"bytes32"},{"name":"callerConfirmation","type":"address","internalType":"address"}],"outputs":[],"stateMutability":"nonpayable"},{"type":"function","name":"revokeRole","inputs":[{"name":"role","type":"bytes32","internalType":"bytes32"},{"name":"account","type":"address","internalType":"address"}],"outputs":[],"stateMutability":"nonpayable"},{"type":"function","name":"supportsInterface","inputs":[{"name":"interfaceId","type":"bytes4","internalType":"bytes4"}],"outputs":[{"name":"","type":"bool","internalType":"bool"}],"stateMutability":"view"},{"type":"function","name":"updateThreshold","inputs":[{"name":"newThreshold","type":"uint256","internalType":"uint256"}],"outputs":[],"stateMutability":"nonpayable"},{"type":"event","name":"ProposalAuthorized","inputs":[{"name":"proposalHash","type":"bytes32","indexed":true,"internalType":"bytes32"},{"name":"signer","type":"address","indexed":true,"internalType":"address"}],"anonymous":false},{"type":"event","name":"RoleAdminChanged","inputs":[{"name":"role","type":"bytes32","indexed":true,"internalType":"bytes32"},{"name":"previousAdminRole","type":"bytes32","indexed":true,"internalType":"bytes32"},{"name":"newAdminRole","type":"bytes32","indexed":true,"internalType":"bytes32"}],"anonymous":false},{"type":"event","name":"RoleGranted","inputs":[{"name":"role","type":"bytes32","indexed":true,"internalType":"bytes32"},{"name":"account","type":"address","indexed":true,"internalType":"address"},{"name":"sender","type":"address","indexed":true,"internalType":"address"}],"anonymous":false},{"type":"event","name":"RoleRevoked","inputs":[{"name":"role","type":"bytes32","indexed":true,"internalType":"bytes32"},{"name":"account","type":"address","indexed":true,"internalType":"address"},{"name":"sender","type":"address","indexed":true,"internalType":"address"}],"anonymous":false},{"type":"event","name":"SignerAdded","inputs":[{"name":"signer","type":"address","indexed":true,"internalType":"address"}],"anonymous":false},{"type":"event","name":"SignerRemoved","inputs":[{"name":"signer","type":"address","indexed":true,"internalType":"address"}],"anonymous":false},{"type":"event","name":"ThresholdUpdated","inputs":[{"name":"oldThreshold","type":"uint256","indexed":false,"internalType":"uint256"},{"name":"newThreshold","type":"uint256","indexed":false,"internalType":"uint256"}],"anonymous":false},{"type":"error","name":"AccessControlBadConfirmation","inputs":[]},{"type":"error","name":"AccessControlUnauthorizedAccount","inputs":[{"name":"account","type":"address","internalType":"address"},{"name":"neededRole","type":"bytes32","internalType":"bytes32"}]},{"type":"error","name":"ECDSAInvalidSignature","inputs":[]},{"type":"error","name":"ECDSAInvalidSignatureLength","inputs":[{"name":"length","type":"uint256","internalType":"uint256"}]},{"type":"error","name":"ECDSAInvalidSignatureS","inputs":[{"name":"s","type":"bytes32","internalType":"bytes32"}]}],"bytecode":{"object":"0x60a0806040523461031a57611852803803809161001c8285610332565b833981019060608183031261031a5761003481610355565b60208201519091906001600160401b03811161031a5781019280601f8501121561031a578351936001600160401b03851161031e578460051b906040519561007f6020840188610332565b865260208087019282010192831161031a57602001905b8282106103025750505060400151906001600160a01b038116156102bd578183511061027857811561023357806100cf6100d592610391565b50610407565b505f5b8251811015610165576001600160a01b036100f38285610369565b511615610120576001906101196001600160a01b036101128387610369565b511661049a565b50016100d8565b60405162461bcd60e51b815260206004820152601660248201527f417574684c617965723a207a65726f207369676e6572000000000000000000006044820152606490fd5b50905160025560015560405161017c604082610332565b600c815260208101906b105c995cd41c9bdd1bd8dbdb60a21b8252604051916101a6604084610332565b600183526020830191603160f81b8352519020915190206040519060208201927f8b73c3c69bb8fe3d512ecc4cf759cc79239f7b179b0ffacaa9a75d522b39400f8452604083015260608201524660808201523060a082015260a0815261020e60c082610332565b5190206080526040516112a4908161052e82396080518181816104140152610a4f0152f35b60405162461bcd60e51b815260206004820152601960248201527f417574684c617965723a207a65726f207468726573686f6c64000000000000006044820152606490fd5b60405162461bcd60e51b815260206004820152601d60248201527f417574684c617965723a207468726573686f6c6420746f6f20686967680000006044820152606490fd5b60405162461bcd60e51b815260206004820152601560248201527f417574684c617965723a207a65726f2061646d696e00000000000000000000006044820152606490fd5b6020809161030f84610355565b815201910190610096565b5f80fd5b634e487b7160e01b5f52604160045260245ffd5b601f909101601f19168101906001600160401b0382119082101761031e57604052565b51906001600160a01b038216820361031a57565b805182101561037d5760209160051b010190565b634e487b7160e01b5f52603260045260245ffd5b6001600160a01b0381165f9081525f5160206118325f395f51905f52602052604090205460ff16610402576001600160a01b03165f8181525f5160206118325f395f51905f5260205260408120805460ff191660011790553391905f5160206117d25f395f51905f528180a4600190565b505f90565b6001600160a01b0381165f9081525f5160206117f25f395f51905f52602052604090205460ff16610402576001600160a01b03165f8181525f5160206117f25f395f51905f5260205260408120805460ff191660011790553391907fa49807205ce4d355092ef5a8a18f56e8913cf4a201fbe287825b095693c21775905f5160206117d25f395f51905f529080a4600190565b6001600160a01b0381165f9081525f5160206118125f395f51905f52602052604090205460ff16610402576001600160a01b03165f8181525f5160206118125f395f51905f5260205260408120805460ff191660011790553391907fe2f4eaae4a9751e85a3e4a7b9587827a877f29914755229b07a7b2da98285f70905f5160206117d25f395f51905f529080a460019056fe6080806040526004361015610012575f80fd5b5f3560e01c90816301ffc9a714610c59575080630e316ab714610b19578063248a9ca314610ae75780632d0335ab14610aaf5780632f2ff15d14610a725780633644e51514610a3857806336568abe146109f457806362f4ed90146109c557806375b238fc1461098b5780637df73e271461093d57806391d14854146108f5578063a1ebf35d146108bb578063a217fddf146108a1578063b715be8114610884578063ceb2587314610352578063d547741f1461030e578063d7d7442f14610222578063e75235b8146102055763eb12d61e146100ed575f80fd5b3461020157602036600319011261020157610106610cac565b61010e610de4565b6001600160a01b0381169081156101c3575f8281525f51602061124f5f395f51905f52602052604090205460ff1661017e5761014990610fba565b50610155600254610dc2565b6002557f47d1c22a25bb3a5d4e481b9b1e6944c2eade3181a0a20b495ed61d35b5323f245f80a2005b60405162461bcd60e51b815260206004820152601960248201527f417574684c617965723a20616c7265616479207369676e6572000000000000006044820152606490fd5b60405162461bcd60e51b815260206004820152601660248201527520baba342630bcb2b91d103d32b9379039b4b3b732b960511b6044820152606490fd5b5f80fd5b34610201575f366003190112610201576020600154604051908152f35b346102015760203660031901126102015760043561023e610de4565b80156102c9576002548111610284577fb06a54caabe58475c86c2bf9df3f2f06dd1213e9e10659c293117fe4893b274b60406001548151908152836020820152a1600155005b60405162461bcd60e51b815260206004820152601d60248201527f417574684c617965723a207468726573686f6c6420746f6f20686967680000006044820152606490fd5b60405162461bcd60e51b815260206004820152601960248201527f417574684c617965723a207a65726f207468726573686f6c64000000000000006044820152606490fd5b346102015760403660031901126102015761035060043561032d610cc2565b9061034b610346825f525f602052600160405f20015490565b610e53565b610f34565b005b346102015760803660031901126102015760043560243560ff81168091036102015760443560643567ffffffffffffffff811161020157366023820112156102015780600401359267ffffffffffffffff8411610201576024820191602436918660051b01011161020157845f52600460205260ff60405f20541661083f578242116107fa5760015484106107aa576103ec849294610d0e565b926103fa6040519485610cd8565b828452601f1961040984610d0e565b013660208601375f947f000000000000000000000000000000000000000000000000000000000000000090865b85811061051c5788888860015482106104d7575f5b82811061046c575f848152600460205260409020805460ff19166001179055005b6001906001600160a01b036104818285610dd0565b51165f52600360205260405f206104988154610dc2565b9055818060a01b036104aa8285610dd0565b5116857fbb4d100368de4c1c74b78a311f96f5387b71e78e9e1cf156ab1e085b94b382715f80a30161044b565b60405162461bcd60e51b815260206004820152601c60248201527f417574684c617965723a207468726573686f6c64206e6f74206d6574000000006044820152606490fd5b6105a461059b61058060405160208101907f4dfeca1f9dee05238b5dad0480370d6a4e2a549341476529129287114a63068082528d60408201528960608201525f60808201528860a082015260a0815261057760c082610cd8565b519020866110e2565b61059561058e858b88610d26565b3691610d7c565b90611113565b9092919261114d565b6001600160a01b0381165f9081525f51602061124f5f395f51905f52602052604090205460ff16158015610799575b6107545760018060a01b031690815f5260036020528161066061059b6106528d60405f20546040519060208201927f4dfeca1f9dee05238b5dad0480370d6a4e2a549341476529129287114a630680845260408301528c606083015260808201528a60a082015260a0815261064960c082610cd8565b519020886110e2565b61059561058e868d8a610d26565b6001600160a01b03160361070f57895f52600560205260405f20825f5260205260ff60405f2054166106ca57816001926106a361069c8c610dc2565b9b8b610dd0565b528a5f52600560205260405f20905f5260205260405f208260ff1982541617905501610436565b60405162461bcd60e51b815260206004820152601b60248201527f417574684c617965723a206475706c6963617465207369676e657200000000006044820152606490fd5b60405162461bcd60e51b815260206004820152601960248201527f417574684c617965723a206e6f6e6365206d69736d61746368000000000000006044820152606490fd5b60405162461bcd60e51b815260206004820152601960248201527f417574684c617965723a20696e76616c6964207369676e6572000000000000006044820152606490fd5b506001600160a01b038116156105d3565b60405162461bcd60e51b815260206004820152602260248201527f417574684c617965723a20696e73756666696369656e74207369676e61747572604482015261657360f01b6064820152608490fd5b60405162461bcd60e51b815260206004820152601d60248201527f417574684c617965723a207369676e61747572657320657870697265640000006044820152606490fd5b60405162461bcd60e51b815260206004820152601d60248201527f417574684c617965723a20616c726561647920617574686f72697a65640000006044820152606490fd5b34610201575f366003190112610201576020600254604051908152f35b34610201575f3660031901126102015760206040515f8152f35b34610201575f3660031901126102015760206040517fe2f4eaae4a9751e85a3e4a7b9587827a877f29914755229b07a7b2da98285f708152f35b346102015760403660031901126102015761090e610cc2565b6004355f525f60205260405f209060018060a01b03165f52602052602060ff60405f2054166040519015158152f35b3461020157602036600319011261020157610956610cac565b6001600160a01b03165f9081525f51602061124f5f395f51905f52602090815260409182902054915160ff9092161515825290f35b34610201575f3660031901126102015760206040517fa49807205ce4d355092ef5a8a18f56e8913cf4a201fbe287825b095693c217758152f35b34610201576020366003190112610201576004355f526004602052602060ff60405f2054166040519015158152f35b3461020157604036600319011261020157610a0d610cc2565b336001600160a01b03821603610a295761035090600435610f34565b63334bd91960e11b5f5260045ffd5b34610201575f3660031901126102015760206040517f00000000000000000000000000000000000000000000000000000000000000008152f35b3461020157604036600319011261020157610350600435610a91610cc2565b90610aaa610346825f525f602052600160405f20015490565b611060565b34610201576020366003190112610201576001600160a01b03610ad0610cac565b165f526003602052602060405f2054604051908152f35b34610201576020366003190112610201576020610b116004355f525f602052600160405f20015490565b604051908152f35b3461020157602036600319011261020157610b32610cac565b610b3a610de4565b6001600160a01b0381165f9081525f51602061124f5f395f51905f52602052604090205460ff1615610c1c576002545f198101908111610bc45760015411610bd857610b8581610e8b565b506002548015610bc4575f19016002556001600160a01b03167f3525e22824a8a7df2c9a6029941c824cf95b6447f1e13d5128fd3826d35afe8b5f80a2005b634e487b7160e01b5f52601160045260245ffd5b606460405162461bcd60e51b815260206004820152602060248201527f417574684c617965723a20776f756c6420627265616b207468726573686f6c646044820152fd5b60405162461bcd60e51b815260206004820152601560248201527420baba342630bcb2b91d103737ba1039b4b3b732b960591b6044820152606490fd5b34610201576020366003190112610201576004359063ffffffff60e01b821680920361020157602091637965db0b60e01b8114908115610c9b575b5015158152f35b6301ffc9a760e01b14905083610c94565b600435906001600160a01b038216820361020157565b602435906001600160a01b038216820361020157565b90601f8019910116810190811067ffffffffffffffff821117610cfa57604052565b634e487b7160e01b5f52604160045260245ffd5b67ffffffffffffffff8111610cfa5760051b60200190565b9190811015610d685760051b81013590601e198136030182121561020157019081359167ffffffffffffffff8311610201576020018236038113610201579190565b634e487b7160e01b5f52603260045260245ffd5b92919267ffffffffffffffff8211610cfa5760405191610da6601f8201601f191660200184610cd8565b829481845281830111610201578281602093845f960137010152565b5f198114610bc45760010190565b8051821015610d685760209160051b010190565b335f9081527f7d7ffb7a348e1c6a02869081a26547b49160dd3df72d1d75a570eb9b698292ec602052604090205460ff1615610e1c57565b63e2517d3f60e01b5f52336004527fa49807205ce4d355092ef5a8a18f56e8913cf4a201fbe287825b095693c2177560245260445ffd5b5f8181526020818152604080832033845290915290205460ff1615610e755750565b63e2517d3f60e01b5f523360045260245260445ffd5b6001600160a01b0381165f9081525f51602061124f5f395f51905f52602052604090205460ff1615610f2f576001600160a01b03165f8181525f51602061124f5f395f51905f5260205260408120805460ff191690553391907fe2f4eaae4a9751e85a3e4a7b9587827a877f29914755229b07a7b2da98285f70907ff6391f5c32d9c69d2a47ea670b442974b53935d1edc7fd64eb21e047a839171b9080a4600190565b505f90565b5f818152602081815260408083206001600160a01b038616845290915290205460ff1615610fb4575f818152602081815260408083206001600160a01b0395909516808452949091528120805460ff19169055339291907ff6391f5c32d9c69d2a47ea670b442974b53935d1edc7fd64eb21e047a839171b9080a4600190565b50505f90565b6001600160a01b0381165f9081525f51602061124f5f395f51905f52602052604090205460ff16610f2f576001600160a01b03165f8181525f51602061124f5f395f51905f5260205260408120805460ff191660011790553391907fe2f4eaae4a9751e85a3e4a7b9587827a877f29914755229b07a7b2da98285f70907f2f8788117e7eff1d82e926ec794901d17c78024a50270940304540a733656f0d9080a4600190565b5f818152602081815260408083206001600160a01b038616845290915290205460ff16610fb4575f818152602081815260408083206001600160a01b0395909516808452949091528120805460ff19166001179055339291907f2f8788117e7eff1d82e926ec794901d17c78024a50270940304540a733656f0d9080a4600190565b9060405190602082019261190160f01b8452602283015260428201526042815261110d606282610cd8565b51902090565b81519190604183036111435761113c9250602082015190606060408401519301515f1a906111c1565b9192909190565b50505f9160029190565b60048110156111ad578061115f575050565b600181036111765763f645eedf60e01b5f5260045ffd5b60028103611191575063fce698f760e01b5f5260045260245ffd5b60031461119b5750565b6335e2f38360e21b5f5260045260245ffd5b634e487b7160e01b5f52602160045260245ffd5b91907f7fffffffffffffffffffffffffffffff5d576e7357a4501ddfe92f46681b20a08411611243579160209360809260ff5f9560405194855216868401526040830152606082015282805260015afa15611238575f516001600160a01b0381161561122e57905f905f90565b505f906001905f90565b6040513d5f823e3d90fd5b5050505f916003919056fe059f08e7d7ba1c82eddc57afae67f80df851baf38a099607a779825038c3ce5ba264697066735822122086482ce68094fcad396ca6f5ee791942fa3870cf31b93c28c157027edc3ed06c64736f6c634300082100332f8788117e7eff1d82e926ec794901d17c78024a50270940304540a733656f0d7d7ffb7a348e1c6a02869081a26547b49160dd3df72d1d75a570eb9b698292ec059f08e7d7ba1c82eddc57afae67f80df851baf38a099607a779825038c3ce5bad3228b676f7d3cd4284a5443f17f1962b36e491b30a40b2405849e597ba5fb5","linkReferences":{}},"methodIdentifiers":{"ADMIN_ROLE()":"75b238fc","DEFAULT_ADMIN_ROLE()":"a217fddf","DOMAIN_SEPARATOR()":"3644e515","SIGNER_ROLE()":"a1ebf35d","addSigner(address)":"eb12d61e","authorizeProposal(bytes32,uint8,uint256,bytes[])":"ceb25873","getNonce(address)":"2d0335ab","getRoleAdmin(bytes32)":"248a9ca3","getSignerCount()":"b715be81","getThreshold()":"e75235b8","grantRole(bytes32,address)":"2f2ff15d","hasRole(bytes32,address)":"91d14854","isAuthorized(bytes32)":"62f4ed90","isSigner(address)":"7df73e27","removeSigner(address)":"0e316ab7","renounceRole(bytes32,address)":"36568abe","revokeRole(bytes32,address)":"d547741f","supportsInterface(bytes4)":"01ffc9a7","updateThreshold(uint256)":"d7d7442f"},"id":40}