{"abi":[{"type":"constructor","inputs":[{"name":"admin","type":"address","internalType":"address"},{"name":"guardian","type":"address","internalType":"address"},{"name":"executor","type":"address","internalType":"address"},{"name":"_proposalManager","type":"address","internalType":"address"},{"name":"_authLayer","type":"address","internalType":"address"},{"name":"_timelockEngine","type":"address","internalType":"address"}],"stateMutability":"nonpayable"},{"type":"receive","stateMutability":"payable"},{"type":"function","name":"DAILY_LIMIT","inputs":[],"outputs":[{"name":"","type":"uint256","internalType":"uint256"}],"stateMutability":"view"},{"type":"function","name":"DEFAULT_ADMIN_ROLE","inputs":[],"outputs":[{"name":"","type":"bytes32","internalType":"bytes32"}],"stateMutability":"view"},{"type":"function","name":"EXECUTOR_ROLE","inputs":[],"outputs":[{"name":"","type":"bytes32","internalType":"bytes32"}],"stateMutability":"view"},{"type":"function","name":"GUARDIAN_ROLE","inputs":[],"outputs":[{"name":"","type":"bytes32","internalType":"bytes32"}],"stateMutability":"view"},{"type":"function","name":"MAX_SINGLE_TRANSFER","inputs":[],"outputs":[{"name":"","type":"uint256","internalType":"uint256"}],"stateMutability":"view"},{"type":"function","name":"authLayer","inputs":[],"outputs":[{"name":"","type":"address","internalType":"contract IAuthorizationLayer"}],"stateMutability":"view"},{"type":"function","name":"emergencyCancel","inputs":[{"name":"proposalHash","type":"bytes32","internalType":"bytes32"}],"outputs":[],"stateMutability":"nonpayable"},{"type":"function","name":"execute","inputs":[{"name":"proposalHash","type":"bytes32","internalType":"bytes32"}],"outputs":[],"stateMutability":"nonpayable"},{"type":"function","name":"getDailySpent","inputs":[],"outputs":[{"name":"","type":"uint256","internalType":"uint256"}],"stateMutability":"view"},{"type":"function","name":"getRoleAdmin","inputs":[{"name":"role","type":"bytes32","internalType":"bytes32"}],"outputs":[{"name":"","type":"bytes32","internalType":"bytes32"}],"stateMutability":"view"},{"type":"function","name":"grantRole","inputs":[{"name":"role","type":"bytes32","internalType":"bytes32"},{"name":"account","type":"address","internalType":"address"}],"outputs":[],"stateMutability":"nonpayable"},{"type":"function","name":"hasRole","inputs":[{"name":"role","type":"bytes32","internalType":"bytes32"},{"name":"account","type":"address","internalType":"address"}],"outputs":[{"name":"","type":"bool","internalType":"bool"}],"stateMutability":"view"},{"type":"function","name":"proposalManager","inputs":[],"outputs":[{"name":"","type":"address","internalType":"contract IProposalManager"}],"stateMutability":"view"},{"type":"function","name":"queueExecution","inputs":[{"name":"proposalHash","type":"bytes32","internalType":"bytes32"}],"outputs":[],"stateMutability":"nonpayable"},{"type":"function","name":"recoverToken","inputs":[{"name":"token","type":"address","internalType":"address"},{"name":"to","type":"address","internalType":"address"},{"name":"amount","type":"uint256","internalType":"uint256"}],"outputs":[],"stateMutability":"nonpayable"},{"type":"function","name":"renounceRole","inputs":[{"name":"role","type":"bytes32","internalType":"bytes32"},{"name":"callerConfirmation","type":"address","internalType":"address"}],"outputs":[],"stateMutability":"nonpayable"},{"type":"function","name":"revokeRole","inputs":[{"name":"role","type":"bytes32","internalType":"bytes32"},{"name":"account","type":"address","internalType":"address"}],"outputs":[],"stateMutability":"nonpayable"},{"type":"function","name":"supportsInterface","inputs":[{"name":"interfaceId","type":"bytes4","internalType":"bytes4"}],"outputs":[{"name":"","type":"bool","internalType":"bool"}],"stateMutability":"view"},{"type":"function","name":"timelockEngine","inputs":[],"outputs":[{"name":"","type":"address","internalType":"contract ITimelockEngine"}],"stateMutability":"view"},{"type":"event","name":"ExecutionPerformed","inputs":[{"name":"proposalHash","type":"bytes32","indexed":true,"internalType":"bytes32"},{"name":"success","type":"bool","indexed":false,"internalType":"bool"}],"anonymous":false},{"type":"event","name":"ExecutionQueued","inputs":[{"name":"proposalHash","type":"bytes32","indexed":true,"internalType":"bytes32"}],"anonymous":false},{"type":"event","name":"NativeReceived","inputs":[{"name":"sender","type":"address","indexed":true,"internalType":"address"},{"name":"amount","type":"uint256","indexed":false,"internalType":"uint256"}],"anonymous":false},{"type":"event","name":"RoleAdminChanged","inputs":[{"name":"role","type":"bytes32","indexed":true,"internalType":"bytes32"},{"name":"previousAdminRole","type":"bytes32","indexed":true,"internalType":"bytes32"},{"name":"newAdminRole","type":"bytes32","indexed":true,"internalType":"bytes32"}],"anonymous":false},{"type":"event","name":"RoleGranted","inputs":[{"name":"role","type":"bytes32","indexed":true,"internalType":"bytes32"},{"name":"account","type":"address","indexed":true,"internalType":"address"},{"name":"sender","type":"address","indexed":true,"internalType":"address"}],"anonymous":false},{"type":"event","name":"RoleRevoked","inputs":[{"name":"role","type":"bytes32","indexed":true,"internalType":"bytes32"},{"name":"account","type":"address","indexed":true,"internalType":"address"},{"name":"sender","type":"address","indexed":true,"internalType":"address"}],"anonymous":false},{"type":"error","name":"AccessControlBadConfirmation","inputs":[]},{"type":"error","name":"AccessControlUnauthorizedAccount","inputs":[{"name":"account","type":"address","internalType":"address"},{"name":"neededRole","type":"bytes32","internalType":"bytes32"}]},{"type":"error","name":"ReentrancyGuardReentrantCall","inputs":[]},{"type":"error","name":"SafeERC20FailedOperation","inputs":[{"name":"token","type":"address","internalType":"address"}]}],"bytecode":{"object":"0x60e0346102d457601f61182b38819003918201601f19168301916001600160401b038311848410176102d85780849260c0946040528339810103126102d457610047816102ec565b90610054602082016102ec565b90610061604082016102ec565b9161006e606083016102ec565b9261008760a0610080608086016102ec565b94016102ec565b60017f9b779b17422d0df92223018b32b4d1fa46e071723d6817e2486d003becc55f0055936001600160a01b0386161561028f576001600160a01b0383161561024a576001600160a01b0316928315610205576001600160a01b03169384156101c0576001600160a01b031694851561017b576101169261010a61011092610300565b50610376565b50610409565b5060805260a05260c05260405161130e908161049d8239608051818181610191015281816103b70152818161060d0152610906015260a0518181816101fc015261080c015260c05181818161025a015281816105ae0152818161085001526109780152f35b60405162461bcd60e51b815260206004820152601760248201527f54726561737572793a207a65726f2074696d656c6f636b0000000000000000006044820152606490fd5b60405162461bcd60e51b815260206004820152601960248201527f54726561737572793a207a65726f2061757468206c61796572000000000000006044820152606490fd5b60405162461bcd60e51b815260206004820152601f60248201527f54726561737572793a207a65726f2070726f706f73616c206d616e61676572006044820152606490fd5b60405162461bcd60e51b815260206004820152601760248201527f54726561737572793a207a65726f20677561726469616e0000000000000000006044820152606490fd5b60405162461bcd60e51b815260206004820152601460248201527f54726561737572793a207a65726f2061646d696e0000000000000000000000006044820152606490fd5b5f80fd5b634e487b7160e01b5f52604160045260245ffd5b51906001600160a01b03821682036102d457565b6001600160a01b0381165f9081525f51602061180b5f395f51905f52602052604090205460ff16610371576001600160a01b03165f8181525f51602061180b5f395f51905f5260205260408120805460ff191660011790553391905f5160206117ab5f395f51905f528180a4600190565b505f90565b6001600160a01b0381165f9081525f5160206117cb5f395f51905f52602052604090205460ff16610371576001600160a01b03165f8181525f5160206117cb5f395f51905f5260205260408120805460ff191660011790553391907f55435dd261a4b9b3364963f7738a7a662ad9c84396d64be3365284bb7f0a5041905f5160206117ab5f395f51905f529080a4600190565b6001600160a01b0381165f9081525f5160206117eb5f395f51905f52602052604090205460ff16610371576001600160a01b03165f8181525f5160206117eb5f395f51905f5260205260408120805460ff191660011790553391907fd8aa0f3194971a2a116679f7c2090f6939c8d4e01a2a8d7e41d55e5351469e63905f5160206117ab5f395f51905f529080a460019056fe60806040526004361015610022575b3615610018575f80fd5b610020610f73565b005b5f3560e01c8063012b7cda1461015157806301ffc9a71461014c57806302f89be21461014757806307bd026514610142578063117e3b421461013d5780631c24b9ef14610138578063248a9ca314610133578063248ec3261461012e57806324ea54f4146101295780632f2ff15d1461012457806336568abe1461011f57806345ef118f1461011a57806391d1485414610115578063a217fddf14610110578063a7229fd91461010b578063d547741f14610106578063dc96102114610101578063e2b2c61b146100fc5763e751f2710361000e5761087f565b61083b565b6107f7565b6107b7565b6106fd565b6106e3565b610692565b610590565b610548565b610503565b6104b8565b610493565b610461565b610444565b610420565b6103e6565b6103a2565b610342565b3461033e57602036600319011261033e5760043561016d610fa1565b60405163014e09e960e31b8152600481018290526020816024816001600160a01b037f0000000000000000000000000000000000000000000000000000000000000000165afa9081156102db576101d8916002915f9161030f575b506101d281610c3b565b14610c4a565b60405163062f4ed960e41b8152600481018290526020816024816001600160a01b037f0000000000000000000000000000000000000000000000000000000000000000165afa80156102db57610235915f916102e0575b50610cae565b604051633e086f5360e11b8152600481018290526020816024815f6001600160a01b037f0000000000000000000000000000000000000000000000000000000000000000165af180156102db576102ae575b507f9b3f65d71c98db207ce5b4049acc8e40b0d12e708abeb195bd0c2d688f2b2db45f80a2005b6102cf9060203d6020116102d4575b6102c78183610bd1565b810190610cfa565b610287565b503d6102bd565b610c1c565b610302915060203d602011610308575b6102fa8183610bd1565b810190610c96565b5f61022f565b503d6102f0565b610331915060203d602011610337575b6103298183610bd1565b810190610c05565b5f6101c8565b503d61031f565b5f80fd5b3461033e57602036600319011261033e5760043563ffffffff60e01b811680910361033e57602090637965db0b60e01b8114908115610387575b506040519015158152f35b6301ffc9a760e01b1490505f61037c565b5f91031261033e57565b3461033e575f36600319011261033e576040517f00000000000000000000000000000000000000000000000000000000000000006001600160a01b03168152602090f35b3461033e575f36600319011261033e5760206040517fd8aa0f3194971a2a116679f7c2090f6939c8d4e01a2a8d7e41d55e5351469e638152f35b3461033e575f36600319011261033e57602060405169d3c21bcecceda10000008152f35b3461033e575f36600319011261033e576020600254604051908152f35b3461033e57602036600319011261033e57602061048b6004355f525f602052600160405f20015490565b604051908152f35b3461033e575f36600319011261033e5760206040516a0422ca8b0a00a4250000008152f35b3461033e575f36600319011261033e5760206040517f55435dd261a4b9b3364963f7738a7a662ad9c84396d64be3365284bb7f0a50418152f35b6001600160a01b0381160361033e57565b3461033e57604036600319011261033e57610020602435600435610526826104f2565b61054361053e825f525f602052600160405f20015490565b6110ce565b611106565b3461033e57604036600319011261033e57600435602435610568816104f2565b336001600160a01b038216036105815761002091611192565b63334bd91960e11b5f5260045ffd5b3461033e57602036600319011261033e576004356105ac611010565b7f00000000000000000000000000000000000000000000000000000000000000006001600160a01b0316803b1561033e5760405163c4d252f560e01b815260048101839052905f908290602490829084905af180156102db5761067e575b507f00000000000000000000000000000000000000000000000000000000000000006001600160a01b0316803b1561033e576040516306e6ed9560e31b815260048101839052905f908290602490829084905af180156102db5761066a57005b806106785f61002093610bd1565b80610398565b806106785f61068c93610bd1565b5f61060a565b3461033e57604036600319011261033e57602060ff6106d76024356004356106b9826104f2565b5f525f845260405f209060018060a01b03165f5260205260405f2090565b54166040519015158152f35b3461033e575f36600319011261033e5760206040515f8152f35b3461033e57606036600319011261033e5760043561071a816104f2565b60243590610727826104f2565b61072f61107f565b60405163a9059cbb60e01b5f9081526001600160a01b039384166004526044803560245292909316929091602091908180865af160015f5114811615610798575b6040919091521561077d57005b635274afe760e01b5f526001600160a01b031660045260245ffd5b60018115166107ae573d15833b15151616610770565b503d5f823e3d90fd5b3461033e57604036600319011261033e576100206024356004356107da826104f2565b6107f261053e825f525f602052600160405f20015490565b611192565b3461033e575f36600319011261033e576040517f00000000000000000000000000000000000000000000000000000000000000006001600160a01b03168152602090f35b3461033e575f36600319011261033e576040517f00000000000000000000000000000000000000000000000000000000000000006001600160a01b03168152602090f35b3461033e57602036600319011261033e5760043560027f9b779b17422d0df92223018b32b4d1fa46e071723d6817e2486d003becc55f005414610bae5760027f9b779b17422d0df92223018b32b4d1fa46e071723d6817e2486d003becc55f00556108e8610fa1565b60405163430694cf60e01b8152600481018290526001600160a01b037f0000000000000000000000000000000000000000000000000000000000000000165f82602481845afa9182156102db575f92610b8a575b5061095a600261010084015161095181610c3b565b6101d281610c3b565b604051639cf782cb60e01b8152600481018490526001600160a01b037f0000000000000000000000000000000000000000000000000000000000000000169290602081602481875afa80156102db576109ba915f91610b6b575b50610e56565b60408101516109c881610ea2565b6109d181610ea2565b15610b42575b823b1561033e5760405163665d4c6160e01b815260048101859052925f908490602490829084905af19182156102db575f80610a539281968296610b2e575b5060405163665d4c6160e01b6020820190815260248083018b90528252908390610a41604482610bd1565b51925af1610a4d610ef8565b50610f27565b60608101516001600160a01b0316608060a083015192015191602083519301915af1610a7d610ef8565b60405182151581529092907f1cf24e59c60b31ac5044300301a0d3f68bfc89781d1b63b4e59552c165aba6c790602090a215610adc5761002060017f9b779b17422d0df92223018b32b4d1fa46e071723d6817e2486d003becc55f0055565b80519081610b295760405162461bcd60e51b815260206004820152601a60248201527f54726561737572793a20657865637574696f6e206661696c65640000000000006044820152606490fd5b602001fd5b8061067884610b3c93610bd1565b5f610a16565b610b6660a08201610b6069d3c21bcecceda100000082511115610eac565b51611237565b6109d7565b610b84915060203d602011610308576102fa8183610bd1565b5f6109b4565b610ba79192503d805f833e610b9f8183610bd1565b810190610d95565b905f61093c565b633ee5aeb560e01b5f5260045ffd5b634e487b7160e01b5f52604160045260245ffd5b90601f8019910116810190811067ffffffffffffffff821117610bf357604052565b610bbd565b5190600582101561033e57565b9081602091031261033e57610c1990610bf8565b90565b6040513d5f823e3d90fd5b634e487b7160e01b5f52602160045260245ffd5b60051115610c4557565b610c27565b15610c5157565b60405162461bcd60e51b815260206004820152601d60248201527f54726561737572793a2070726f706f73616c206e6f74207175657565640000006044820152606490fd5b9081602091031261033e5751801515810361033e5790565b15610cb557565b60405162461bcd60e51b815260206004820152601860248201527f54726561737572793a206e6f7420617574686f72697a656400000000000000006044820152606490fd5b9081602091031261033e575190565b60405190610d1961012083610bd1565b565b5190610d19826104f2565b5190600382101561033e57565b67ffffffffffffffff8111610bf357601f01601f191660200190565b81601f8201121561033e57805190610d6682610d33565b92610d746040519485610bd1565b8284526020838301011161033e57815f9260208093018386015e8301015290565b60208183031261033e5780519067ffffffffffffffff821161033e57016101208183031261033e57610dc5610d09565b9181518352610dd660208301610d1b565b6020840152610de760408301610d26565b6040840152610df860608301610d1b565b606084015260808201519167ffffffffffffffff831161033e57610e2461010092610e4d948301610d4f565b608085015260a081015160a085015260c081015160c085015260e081015160e085015201610bf8565b61010082015290565b15610e5d57565b60405162461bcd60e51b815260206004820152601e60248201527f54726561737572793a2074696d656c6f636b206e6f7420656c617073656400006044820152606490fd5b60031115610c4557565b15610eb357565b60405162461bcd60e51b815260206004820152601f60248201527f54726561737572793a2073696e676c65207472616e73666572206c696d6974006044820152606490fd5b3d15610f22573d90610f0982610d33565b91610f176040519384610bd1565b82523d5f602084013e565b606090565b15610f2e57565b60405162461bcd60e51b815260206004820152601e60248201527f54726561737572793a2070726f706f73616c206d61726b206661696c656400006044820152606490fd5b6040513481527f8ac633e5b094e1150d2a6495df4d0c77f51d293abe99e7733c78870dfbee766060203392a2565b335f9081527fdae2aa361dfd1ca020a396615627d436107c35eff9fe7738a3512819782d7069602052604090205460ff1615610fd957565b63e2517d3f60e01b5f52336004527fd8aa0f3194971a2a116679f7c2090f6939c8d4e01a2a8d7e41d55e5351469e6360245260445ffd5b335f9081527f8a40f0b47fdc2a0ce293b772acfc7508c8315a4d462786c1adc3a56f92ca2d05602052604090205460ff161561104857565b63e2517d3f60e01b5f52336004527f55435dd261a4b9b3364963f7738a7a662ad9c84396d64be3365284bb7f0a504160245260445ffd5b335f9081527fad3228b676f7d3cd4284a5443f17f1962b36e491b30a40b2405849e597ba5fb5602052604090205460ff16156110b757565b63e2517d3f60e01b5f52336004525f60245260445ffd5b5f8181526020818152604080832033845290915290205460ff16156110f05750565b63e2517d3f60e01b5f523360045260245260445ffd5b5f818152602081815260408083206001600160a01b038616845290915290205460ff1661118c575f818152602081815260408083206001600160a01b03861684529091529020805460ff1916600117905533916001600160a01b0316907f2f8788117e7eff1d82e926ec794901d17c78024a50270940304540a733656f0d5f80a4600190565b50505f90565b5f818152602081815260408083206001600160a01b038616845290915290205460ff161561118c575f818152602081815260408083206001600160a01b03861684529091529020805460ff1916905533916001600160a01b0316907ff6391f5c32d9c69d2a47ea670b442974b53935d1edc7fd64eb21e047a839171b5f80a4600190565b9190820180921161122357565b634e487b7160e01b5f52601160045260245ffd5b600154620151808101809111611223574210156112cb575b600254906a0422ca8b0a00a4250000006112698284611216565b1161127c5761127791611216565b600255565b60405162461bcd60e51b815260206004820152602160248201527f5370656e64696e674c69623a206461696c79206c696d697420657863656564656044820152601960fa1b6064820152608490fd5b426001555f60025561124f56fea2646970667358221220614d1b03b4655f895f9bf7d469f758447edb650df22ad9e4199145817433d29664736f6c634300082100332f8788117e7eff1d82e926ec794901d17c78024a50270940304540a733656f0d8a40f0b47fdc2a0ce293b772acfc7508c8315a4d462786c1adc3a56f92ca2d05dae2aa361dfd1ca020a396615627d436107c35eff9fe7738a3512819782d7069ad3228b676f7d3cd4284a5443f17f1962b36e491b30a40b2405849e597ba5fb5","linkReferences":{}},"methodIdentifiers":{"DAILY_LIMIT()":"248ec326","DEFAULT_ADMIN_ROLE()":"a217fddf","EXECUTOR_ROLE()":"07bd0265","GUARDIAN_ROLE()":"24ea54f4","MAX_SINGLE_TRANSFER()":"117e3b42","authLayer()":"dc961021","emergencyCancel(bytes32)":"45ef118f","execute(bytes32)":"e751f271","getDailySpent()":"1c24b9ef","getRoleAdmin(bytes32)":"248a9ca3","grantRole(bytes32,address)":"2f2ff15d","hasRole(bytes32,address)":"91d14854","proposalManager()":"02f89be2","queueExecution(bytes32)":"012b7cda","recoverToken(address,address,uint256)":"a7229fd9","renounceRole(bytes32,address)":"36568abe","revokeRole(bytes32,address)":"d547741f","supportsInterface(bytes4)":"01ffc9a7","timelockEngine()":"e2b2c61b"},"id":37}