{"abi":[{"type":"constructor","inputs":[{"name":"admin","type":"address","internalType":"address"},{"name":"guardian","type":"address","internalType":"address"}],"stateMutability":"nonpayable"},{"type":"function","name":"DEFAULT_ADMIN_ROLE","inputs":[],"outputs":[{"name":"","type":"bytes32","internalType":"bytes32"}],"stateMutability":"view"},{"type":"function","name":"EXECUTOR_ROLE","inputs":[],"outputs":[{"name":"","type":"bytes32","internalType":"bytes32"}],"stateMutability":"view"},{"type":"function","name":"GUARDIAN_ROLE","inputs":[],"outputs":[{"name":"","type":"bytes32","internalType":"bytes32"}],"stateMutability":"view"},{"type":"function","name":"MAX_ACTIVE_PER_PROPOSER","inputs":[],"outputs":[{"name":"","type":"uint256","internalType":"uint256"}],"stateMutability":"view"},{"type":"function","name":"MIN_COMMIT_BLOCKS","inputs":[],"outputs":[{"name":"","type":"uint256","internalType":"uint256"}],"stateMutability":"view"},{"type":"function","name":"TREASURY_ROLE","inputs":[],"outputs":[{"name":"","type":"bytes32","internalType":"bytes32"}],"stateMutability":"view"},{"type":"function","name":"cancelProposal","inputs":[{"name":"proposalHash","type":"bytes32","internalType":"bytes32"}],"outputs":[],"stateMutability":"nonpayable"},{"type":"function","name":"commitProposal","inputs":[{"name":"proposalHash","type":"bytes32","internalType":"bytes32"}],"outputs":[],"stateMutability":"nonpayable"},{"type":"function","name":"getProposal","inputs":[{"name":"proposalHash","type":"bytes32","internalType":"bytes32"}],"outputs":[{"name":"","type":"tuple","internalType":"struct IProposalManager.Proposal","components":[{"name":"proposalHash","type":"bytes32","internalType":"bytes32"},{"name":"proposer","type":"address","internalType":"address"},{"name":"actionType","type":"uint8","internalType":"enum IProposalManager.ActionType"},{"name":"target","type":"address","internalType":"address"},{"name":"callData","type":"bytes","internalType":"bytes"},{"name":"value","type":"uint256","internalType":"uint256"},{"name":"commitBlock","type":"uint256","internalType":"uint256"},{"name":"revealBlock","type":"uint256","internalType":"uint256"},{"name":"state","type":"uint8","internalType":"enum IProposalManager.ProposalState"}]}],"stateMutability":"view"},{"type":"function","name":"getProposalState","inputs":[{"name":"proposalHash","type":"bytes32","internalType":"bytes32"}],"outputs":[{"name":"","type":"uint8","internalType":"enum IProposalManager.ProposalState"}],"stateMutability":"view"},{"type":"function","name":"getRoleAdmin","inputs":[{"name":"role","type":"bytes32","internalType":"bytes32"}],"outputs":[{"name":"","type":"bytes32","internalType":"bytes32"}],"stateMutability":"view"},{"type":"function","name":"grantRole","inputs":[{"name":"role","type":"bytes32","internalType":"bytes32"},{"name":"account","type":"address","internalType":"address"}],"outputs":[],"stateMutability":"nonpayable"},{"type":"function","name":"hasRole","inputs":[{"name":"role","type":"bytes32","internalType":"bytes32"},{"name":"account","type":"address","internalType":"address"}],"outputs":[{"name":"","type":"bool","internalType":"bool"}],"stateMutability":"view"},{"type":"function","name":"markExecuted","inputs":[{"name":"proposalHash","type":"bytes32","internalType":"bytes32"}],"outputs":[],"stateMutability":"nonpayable"},{"type":"function","name":"renounceRole","inputs":[{"name":"role","type":"bytes32","internalType":"bytes32"},{"name":"callerConfirmation","type":"address","internalType":"address"}],"outputs":[],"stateMutability":"nonpayable"},{"type":"function","name":"revealProposal","inputs":[{"name":"actionType","type":"uint8","internalType":"enum IProposalManager.ActionType"},{"name":"target","type":"address","internalType":"address"},{"name":"callData","type":"bytes","internalType":"bytes"},{"name":"value","type":"uint256","internalType":"uint256"},{"name":"salt","type":"bytes32","internalType":"bytes32"}],"outputs":[{"name":"proposalHash","type":"bytes32","internalType":"bytes32"}],"stateMutability":"nonpayable"},{"type":"function","name":"revokeRole","inputs":[{"name":"role","type":"bytes32","internalType":"bytes32"},{"name":"account","type":"address","internalType":"address"}],"outputs":[],"stateMutability":"nonpayable"},{"type":"function","name":"supportsInterface","inputs":[{"name":"interfaceId","type":"bytes4","internalType":"bytes4"}],"outputs":[{"name":"","type":"bool","internalType":"bool"}],"stateMutability":"view"},{"type":"event","name":"ProposalCancelled","inputs":[{"name":"proposalHash","type":"bytes32","indexed":true,"internalType":"bytes32"},{"name":"cancelledBy","type":"address","indexed":false,"internalType":"address"}],"anonymous":false},{"type":"event","name":"ProposalCommitted","inputs":[{"name":"proposalHash","type":"bytes32","indexed":true,"internalType":"bytes32"},{"name":"proposer","type":"address","indexed":true,"internalType":"address"}],"anonymous":false},{"type":"event","name":"ProposalExecuted","inputs":[{"name":"proposalHash","type":"bytes32","indexed":true,"internalType":"bytes32"}],"anonymous":false},{"type":"event","name":"ProposalQueued","inputs":[{"name":"proposalHash","type":"bytes32","indexed":true,"internalType":"bytes32"},{"name":"executableAfter","type":"uint256","indexed":false,"internalType":"uint256"}],"anonymous":false},{"type":"event","name":"ProposalRevealed","inputs":[{"name":"proposalHash","type":"bytes32","indexed":true,"internalType":"bytes32"},{"name":"actionType","type":"uint8","indexed":false,"internalType":"enum IProposalManager.ActionType"}],"anonymous":false},{"type":"event","name":"RoleAdminChanged","inputs":[{"name":"role","type":"bytes32","indexed":true,"internalType":"bytes32"},{"name":"previousAdminRole","type":"bytes32","indexed":true,"internalType":"bytes32"},{"name":"newAdminRole","type":"bytes32","indexed":true,"internalType":"bytes32"}],"anonymous":false},{"type":"event","name":"RoleGranted","inputs":[{"name":"role","type":"bytes32","indexed":true,"internalType":"bytes32"},{"name":"account","type":"address","indexed":true,"internalType":"address"},{"name":"sender","type":"address","indexed":true,"internalType":"address"}],"anonymous":false},{"type":"event","name":"RoleRevoked","inputs":[{"name":"role","type":"bytes32","indexed":true,"internalType":"bytes32"},{"name":"account","type":"address","indexed":true,"internalType":"address"},{"name":"sender","type":"address","indexed":true,"internalType":"address"}],"anonymous":false},{"type":"error","name":"AccessControlBadConfirmation","inputs":[]},{"type":"error","name":"AccessControlUnauthorizedAccount","inputs":[{"name":"account","type":"address","internalType":"address"},{"name":"neededRole","type":"bytes32","internalType":"bytes32"}]}],"bytecode":{"object":"0x60803461011c57601f61158b38819003918201601f19168301916001600160401b0383118484101761012057808492604094855283398101031261011c57610052602061004b83610134565b9201610134565b6001600160a01b038216156100d7576001600160a01b038116156100925761007c61008292610148565b506101be565b506040516112d990816102528239f35b60405162461bcd60e51b815260206004820152601e60248201527f50726f706f73616c4d616e616765723a207a65726f20677561726469616e00006044820152606490fd5b60405162461bcd60e51b815260206004820152601b60248201527f50726f706f73616c4d616e616765723a207a65726f2061646d696e00000000006044820152606490fd5b5f80fd5b634e487b7160e01b5f52604160045260245ffd5b51906001600160a01b038216820361011c57565b6001600160a01b0381165f9081525f51602061156b5f395f51905f52602052604090205460ff166101b9576001600160a01b03165f8181525f51602061156b5f395f51905f5260205260408120805460ff191660011790553391905f51602061152b5f395f51905f528180a4600190565b505f90565b6001600160a01b0381165f9081525f51602061154b5f395f51905f52602052604090205460ff166101b9576001600160a01b03165f8181525f51602061154b5f395f51905f5260205260408120805460ff191660011790553391907f55435dd261a4b9b3364963f7738a7a662ad9c84396d64be3365284bb7f0a5041905f51602061152b5f395f51905f529080a460019056fe6080806040526004361015610012575f80fd5b5f3560e01c90816301ffc9a714610fdb575080630346379914610fc057806307bd026514610f865780630a704f4814610f4f578063248a9ca314610f1d57806324ea54f414610ee35780632f2ff15d14610ea657806336568abe14610e6257806337376ca814610c9f578063430694cf14610a6c578063665d4c61146109285780636f091b9d1461090d578063884f1cca146105a15780638b64ade8146101c657806391d148541461017e578063a217fddf14610164578063d11a57ec1461012a5763d547741f146100e2575f80fd5b346101265760403660031901126101265761012460043561010161103b565b9061011f61011a825f525f602052600160405f20015490565b611163565b611223565b005b5f80fd5b34610126575f3660031901126101265760206040517fe1dcbdb91df27212a29bc27177c840cf2f819ecf2187432e1fac86c2dd5dfca98152f35b34610126575f3660031901126101265760206040515f8152f35b346101265760403660031901126101265761019761103b565b6004355f525f60205260405f209060018060a01b03165f52602052602060ff60405f2054166040519015158152f35b346101265760a0366003190112610126576004356003811015610126576101eb61103b565b906044359067ffffffffffffffff821161012657366023830112156101265781600401359067ffffffffffffffff821161012657366024838501011161012657606435926040519460208601906102428285611051565b6001600160a01b03166040870181905260a0606088015260c0870185905295846024840160e08301375f60e0868301015285608082015260843560a08201526102a060e082601f19601f89011681010301601f198101835282611087565b51902093845f52600160205260405f2090600782019260ff845416600581101561058d57600103610548576001830180549096906001600160a01b03163303610503576005840154600181018091116104ef5743106104ab5788156104665760209861030d878a996110e1565b60028501906bffffffffffffffffffffffff60a01b82541617905560038401916103418261033b85546110a9565b85611105565b5f90601f83116001146103d457828b9795937f231cde36ca96975f9c8647ff1f931697eb294b0e3185c76d879a3db3031b864a99979593610397935f926103c6575b50508160011b915f199060031b1c19161790565b90555b6004820155600643910155600260ff198254161790556103bd6040518092611051565ba2604051908152f35b602492500101358d80610383565b601f19831691845f528b5f20925f5b81811061044957509260019285928e9a98967f231cde36ca96975f9c8647ff1f931697eb294b0e3185c76d879a3db3031b864a9c9a98961061042d575b505050811b01905561039a565b01602401355f19600384901b60f8161c191690558c8080610420565b8284016024013585558c9b50600190940193918d01918d016103e3565b60405162461bcd60e51b815260206004820152601c60248201527f50726f706f73616c4d616e616765723a207a65726f20746172676574000000006044820152606490fd5b606460405162461bcd60e51b815260206004820152602060248201527f50726f706f73616c4d616e616765723a2072657665616c20746f6f20736f6f6e6044820152fd5b634e487b7160e01b5f52601160045260245ffd5b60405162461bcd60e51b815260206004820152601d60248201527f50726f706f73616c4d616e616765723a206e6f742070726f706f7365720000006044820152606490fd5b60405162461bcd60e51b815260206004820152601e60248201527f50726f706f73616c4d616e616765723a206e6f7420636f6d6d697474656400006044820152606490fd5b634e487b7160e01b5f52602160045260245ffd5b346101265760203660031901126101265760043580156108c857805f52600160205260ff600760405f20015416600581101561058d5761088357335f526002602052600560405f2054101561082b57604051906105fd8261106a565b808252602082019133835260408101905f825260608101935f8552604051946020860186811067ffffffffffffffff821117610817576040525f86526080830195865260a083015f815260c084019143835260e08501935f855261010086019660018852885f52600160205260405f2096518755600187019160018060a01b039060018060a01b03905116166bffffffffffffffffffffffff60a01b83541617825551600381101561058d576106b2916110e1565b516002850180546001600160a01b0319166001600160a01b039290921691909117905595518051909690600385019067ffffffffffffffff811161081757610704816106fe84546110a9565b84611105565b6020601f82116001146107b1579080610736926007999a9b5f926107a65750508160011b915f199060031b1c19161790565b90555b516004840155516005830155516006820155019051600581101561058d5760ff80198354169116179055335f52600260205260405f2080545f1981146104ef57600101905533907fc7d3a470d17ad4a47c6db8e281f2ef8e6fee5914ce98680a710bf62b420989045f80a3005b015190508b80610383565b601f19821699835f52815f209a5f5b8181106107ff5750916007999a9b918460019594106107e7575b505050811b019055610739565b01515f1960f88460031b161c191690558a80806107da565b838301518d556001909c019b602093840193016107c0565b634e487b7160e01b5f52604160045260245ffd5b60405162461bcd60e51b815260206004820152602a60248201527f50726f706f73616c4d616e616765723a20746f6f206d616e79206163746976656044820152692070726f706f73616c7360b01b6064820152608490fd5b60405162461bcd60e51b815260206004820152601f60248201527f50726f706f73616c4d616e616765723a20616c726561647920657869737473006044820152606490fd5b60405162461bcd60e51b815260206004820152601a60248201527f50726f706f73616c4d616e616765723a207a65726f20686173680000000000006044820152606490fd5b34610126575f36600319011261012657602060405160058152f35b3461012657602036600319011261012657335f9081527f9e5c930214a7bc8a78d251e617445bcdba028aed2ede5828cc6cd6c8261656f560205260409020546004359060ff1615610a3557805f52600160205260405f206007810160ff815416600581101561058d576002036109f057805460ff19166003179055600101546001600160a01b03165f90815260026020526040902080546109c89061105e565b90557f7b1bcf1ccf901a11589afff5504d59fd0a53780eed2a952adade0348985139e05f80a2005b60405162461bcd60e51b815260206004820152601b60248201527f50726f706f73616c4d616e616765723a206e6f742071756575656400000000006044820152606490fd5b63e2517d3f60e01b5f52336004527fe1dcbdb91df27212a29bc27177c840cf2f819ecf2187432e1fac86c2dd5dfca960245260445ffd5b34610126576020366003190112610126575f610100604051610a8d8161106a565b828152826020820152826040820152826060820152606060808201528260a08201528260c08201528260e082015201526004355f52600160205260405f2060405190610ad88261106a565b8054825260018101546001600160a01b03811660208401908152926040810192909160a01c60ff16600381101561058d57835260028101546001600160a01b0316606083019081526040516003830180549295929082905f90610b3a846110a9565b8084529360018116908115610c7d5750600114610c39575b50610b5f92500382611087565b6080840190815260048301549260a08501938452600581015460c0860190815260ff600760068401549360e0890194855201541694610100870193600587101561058d5761016098610bdb610c2b9760209988526040519c8d9b8b8d52518b8d015260018060a01b0390511660408c01525160608b0190611051565b516001600160a01b031660808901525161012060a089015280516101408901819052968791018989015e5f8887890101525160c08701525160e0860152516101008501525161012084019061102e565b601f01601f19168101030190f35b90505f9291925260205f20905f915b818310610c61575050906020610b5f9282010189610b52565b6020919350806001915483858801015201910190918392610c48565b905060209250610b5f94915060ff191682840152151560051b82010189610b52565b3461012657602036600319011261012657600435805f52600160205260405f206007810160ff8154169160058310158061058d576001841480948115610e54575b5015610e1057335f8181527f8a40f0b47fdc2a0ce293b772acfc7508c8315a4d462786c1adc3a56f92ca2d0560205260409020546001939093018054909560ff909416936001600160a01b039091169091149182610e02575b50508115610dfa575b5015610da357805460ff19166004179055546001600160a01b03165f9081526002602052604090208054610d759061105e565b90557f56a54393c88fb71d37dc109609d88e0b586637deb2452aef5f41d3eb32adedfc6020604051338152a2005b60405162461bcd60e51b815260206004820152602960248201527f50726f706f73616c4d616e616765723a206e6f7420617574686f72697a6564206044820152681d1bc818d85b98d95b60ba1b6064820152608490fd5b905084610d42565b90915061058d578580610d39565b606460405162461bcd60e51b815260206004820152602060248201527f50726f706f73616c4d616e616765723a206e6f742063616e63656c6c61626c656044820152fd5b91505060025f911486610ce0565b3461012657604036600319011261012657610e7b61103b565b336001600160a01b03821603610e975761012490600435611223565b63334bd91960e11b5f5260045ffd5b3461012657604036600319011261012657610124600435610ec561103b565b90610ede61011a825f525f602052600160405f20015490565b61119b565b34610126575f3660031901126101265760206040517f55435dd261a4b9b3364963f7738a7a662ad9c84396d64be3365284bb7f0a50418152f35b34610126576020366003190112610126576020610f476004355f525f602052600160405f20015490565b604051908152f35b34610126576020366003190112610126576004355f526001602052602060ff600760405f20015416610f84604051809261102e565bf35b34610126575f3660031901126101265760206040517fd8aa0f3194971a2a116679f7c2090f6939c8d4e01a2a8d7e41d55e5351469e638152f35b34610126575f36600319011261012657602060405160018152f35b34610126576020366003190112610126576004359063ffffffff60e01b821680920361012657602091637965db0b60e01b811490811561101d575b5015158152f35b6301ffc9a760e01b14905083611016565b90600582101561058d5752565b602435906001600160a01b038216820361012657565b90600382101561058d5752565b80156104ef575f190190565b610120810190811067ffffffffffffffff82111761081757604052565b90601f8019910116810190811067ffffffffffffffff82111761081757604052565b90600182811c921680156110d7575b60208310146110c357565b634e487b7160e01b5f52602260045260245ffd5b91607f16916110b8565b90600381101561058d57815460ff60a01b191660a09190911b60ff60a01b16179055565b919091601f8311611116575b505050565b81831161112257505050565b5f5260205f206020601f830160051c921061115b575b81601f9101920160051c03905f5b82811015611111575f82820155600101611146565b5f9150611138565b5f8181526020818152604080832033845290915290205460ff16156111855750565b63e2517d3f60e01b5f523360045260245260445ffd5b5f818152602081815260408083206001600160a01b038616845290915290205460ff1661121d575f818152602081815260408083206001600160a01b0395909516808452949091528120805460ff19166001179055339291907f2f8788117e7eff1d82e926ec794901d17c78024a50270940304540a733656f0d9080a4600190565b50505f90565b5f818152602081815260408083206001600160a01b038616845290915290205460ff161561121d575f818152602081815260408083206001600160a01b0395909516808452949091528120805460ff19169055339291907ff6391f5c32d9c69d2a47ea670b442974b53935d1edc7fd64eb21e047a839171b9080a460019056fea264697066735822122080a186ecb65cceb4239892d03098dd232ee182301e5af6828f903a3148b3384964736f6c634300082100332f8788117e7eff1d82e926ec794901d17c78024a50270940304540a733656f0d8a40f0b47fdc2a0ce293b772acfc7508c8315a4d462786c1adc3a56f92ca2d05ad3228b676f7d3cd4284a5443f17f1962b36e491b30a40b2405849e597ba5fb5","linkReferences":{}},"methodIdentifiers":{"DEFAULT_ADMIN_ROLE()":"a217fddf","EXECUTOR_ROLE()":"07bd0265","GUARDIAN_ROLE()":"24ea54f4","MAX_ACTIVE_PER_PROPOSER()":"6f091b9d","MIN_COMMIT_BLOCKS()":"03463799","TREASURY_ROLE()":"d11a57ec","cancelProposal(bytes32)":"37376ca8","commitProposal(bytes32)":"884f1cca","getProposal(bytes32)":"430694cf","getProposalState(bytes32)":"0a704f48","getRoleAdmin(bytes32)":"248a9ca3","grantRole(bytes32,address)":"2f2ff15d","hasRole(bytes32,address)":"91d14854","markExecuted(bytes32)":"665d4c61","renounceRole(bytes32,address)":"36568abe","revealProposal(uint8,address,bytes,uint256,bytes32)":"8b64ade8","revokeRole(bytes32,address)":"d547741f","supportsInterface(bytes4)":"01ffc9a7"},"id":41}